:1000000000308A00152800000830A802031C1428BC
:100010002830840083130310800C0008031914286F
:1000200012280000800B1128080003081F398300E4
:10003000713083168F0090010F08FF308312A600E5
:10004000831603170908C039890003131F129F1272
:100050000030031788008312870188018901831308
:1000600003131F179F1783169F1783121F148316DE
:1000700003170908C039890003131F129F120130AA
:10008000031788000C30F700F70B442847280000BE
:10009000831203139F149F184B2883161E08831284
:1000A000A0001E08A100CF302007A2002108A30055
:1000B000033003180430A3070716261226088316F8
:1000C000870083122308A700A70AA70303196C2837
:1000D000FF30A800042065282208A8000420071289
:1000E000261226088316870083122008D03CA2001F
:1000F0000730A3002108031C210FA3022308A70037
:10010000A70AA70303198828FF30A8000420812824
:0E0110002208A800042083160317422863006B
:04400E00C42CFF3F80
:00000001FF
;PIC16F887
;CRC=2472  CREATED="29-sep.-22 22:43"
